:1000000061C085C024C583C0D8C481C080C07FC002
:100010007EC07DC07CC07BC07AC079C078C000C281
:10002000010000000E000E000C0000E100000500C1
:10003000220022002000009600000F00360036004B
:100040003400127A00001700430043004100807022
:1000500000001A004A004A004800004B00002C0033
:10006000710071007000403800004A009C00990047
:100070009900802500007200EA00EA00E900C01241
:100080000000E900DA01DA01D70160090000D701B8
:10009000AC03AC03B103B0040000B3036E076E07FA
:1000A00067072C010000DC0EC11DC11DBE1D0037FD
:1000B000003800360101010101010102040810208D
:1000C000A1093D0A11241FBECFE5D2E0DEBFCDBF9E
:1000D00021E0AEE4B1E001C01D92AF3FB207E1F70D
:1000E00011E0A0E6B0E0E2ECF7E102C005900D926D
:1000F000AE34B107D9F710E0C1E6D0E003C02197D4
:10010000FE014DDBC036D107D1F7E6D44ECB78CF18
:100110002091EF01263050F435B381E090E001C02A
:10012000880F2A95EAF78095832385BB08958091EF
:10013000E9019091EA01029738F031F0880F991F98
:10014000880F991F0197F1F70895282F30E0F901E2
:10015000E654FF4F9491F901EC54FF4FE491EE23E4
:10016000A1F0811113C08AB58F738ABDF0E0E0550C
:10017000FF4FA491B0E08FB7611113C0F8942C9198
:10018000E92FE095E223EC938FBF0895813019F4B5
:100190008AB58F7CEACF843049F78CB58F7C8CBDD3
:1001A000E5CFF894EC91E92BEECF90E0FC01E6541A
:1001B000FF4F24918C549F4FFC0184918823A1F020
:1001C00090E0FC01E255FF4FA491B0E080559F4FB5
:1001D000FC0184918FB7611108C0F8949C91E22FC3
:1001E000E095E923EC938FBF0895F894EC91E22B0E
:1001F000F9CFCF93DF93C6EED1E061E08981D5DFFF
:1002000096DF60E08881D1DF92DF60E08981CDDF19
:10021000DF91CF918CCF0F931F93CF93DF93D82F84
:10022000C8E061E08091E601C0DF81DF0D2F10E0C2
:1002300060E0D0FF61E08091E701B7DF78DF60E048
:100240008091E601B2DF73DF15950795D02FC1507D
:1002500041F761E08091E601A8DF60E08091E7016D
:10026000A4DF65DF60E08091E6019FDF60DF309111
:10027000E701832F90E0FC01E654FF4F2491FC013D
:10028000EC54FF4FE491EE2369F1311120C08AB59F
:100290008F738ABDF0E0EE54FF4FA491B0E0EC9173
:1002A000E223C1E009F4C0E0C11104C061E0809123
:1002B000E7017BDF3CDF61E08091E60176DF37DF3D
:1002C0008C2F8170DF91CF911F910F910895313064
:1002D00019F48AB58F7CDDCF3430E1F68CB58F7C94
:1002E0008CBDD8CFC0E0E2CF61E08091E7015DDF57
:1002F0001ECF0F931F93CF93DF938C01F5DF80E424
:100300008ADF77DFF1DF80EC86DFE8010C5F1F4FCB
:10031000899181DFC017D107D9F76BDFE5DF8091C5
:10032000E8018F70805877DFDF91CF911F910F9197
:1003300060CFCF93DF9300D000D0CDB7DEB7198266
:100340001A821B821C82CE010196D3DF0F900F9080
:100350000F900F90DF91CF9108952091E50197B113
:100360009F72322F3295330F330F307C932B220F35
:10037000220F2071922B97B997B1907F892B87B963
:10038000369A3699FECF84B195B108953FB7F89467
:100390008091E1019091E201A091E301B091E4012B
:1003A0002FB508B602FE05C02F3F19F00196A11D1A
:1003B000B11D3FBFBA2FA92F982F8827BC01CD01AF
:1003C000620F711D811D911D42E0660F771F881F0E
:1003D000991F4A95D1F70895CF92DF92EF92FF923D
:1003E000CF93DF93D3DFEB0180EDC82E87E0D82ECB
:1003F000E12CF12CCBDF6C1B7D0B683E7340D0F3FE
:1004000081E0C81AD108E108F108C851DC4FC114D5
:10041000D104E104F10471F7DF91CF91FF90EF90E7
:10042000DF90CF900895CF92DF92EF92FF920F93DB
:100430001F93CF93DF936C01EB017B01E40EF51E5C
:1004400010E000E0CE15DF0561F06991D601ED9175
:10045000FC910190F081E02DC6010995080F191F4C
:10046000F1CFC801DF91CF911F910F91FF90EF90D5
:10047000DF90CF900895DC011996ED91FC911A97C9
:10048000908118968C91809589238083089520917E
:10049000C4013091C5012817390781F49091C20138
:1004A0008091C301981751F0E091C201F0E0E85A41
:1004B000FE4F8081082E000C990B08958FEF9FEF5F
:1004C00008952091C4013091C5012817390739F4E6
:1004D0008FB7F8941092C3011092C2018FBF089594
:1004E0002091C4013091C5012817390761F480912A
:1004F000C3012091C20190E0805C9F4F821B910953
:1005000060E470E0FFC890E080E008952091C401AD
:100510003091C50128173907B9F49091C201809133
:10052000C301981789F0E091C201F0E0E85AFE4F4C
:1005300080812091C20130E02F5F3F4F2F7333271E
:100540002093C20190E008958FEF9FEF089520E07F
:1005500001972FEF8F3F9207D9F70895EF92FF92FF
:100560000F931F93CF93DF93C091C401D091C50126
:10057000209749F0EE81FF819D818B8981FF0AC020
:100580008081892351F4DF91CF911F910F91FF90CA
:10059000EF90089580818923B1F78B859C85D7DF03
:1005A00088E0E82EF12C10E001E08D859E85CFDFFC
:1005B000EE81FF8180819D81892331F1102B000F15
:1005C00081E0E81AF10889F78F859889C0DF8B8967
:1005D00081FD10958091C3012091C20190E00196A8
:1005E0008F7399272817190699F0E091C301F0E05D
:1005F000E85AFE4F10838091C30190E001968F73FB
:1006000099278093C301BFCF802F80951823D7CF20
:100610008B8981608B8BB7CFCF934091B201509182
:10062000B301E2EAF1E0DC0180E030E020E0C191DA
:100630009D91C9130DC02417350754F4811108C0CA
:100640002F5F3F4F81E02617370789F380E0EFCF18
:10065000CF910895E2EAF1E0119281E0E23BF807E0
:10066000D9F71092B3011092B2010895CF92DF92A0
:10067000EF92FF92CF93DF93C0915701D0914E013B
:10068000CD1739F0C1110CC060E081E05EDD109241
:100690004E01DF91CF91FF90EF90DF90CF900895C2
:1006A000C13031F461E081E050DDC0934E01F1CF03
:1006B000C090D801D090D901E090DA01F090DB0130
:1006C00080914F0190915001A0915101B091520140
:1006D0004091530150915401609155017091560120
:1006E000840F951FA61FB71FC816D906EA06FB067A
:1006F00080F2C23039F460E081E027DD83E080934E
:10070000570109C0C33081F461E081E01EDDD09360
:100710005701C0934E01C0924F01D0925001E09218
:100720005101F0925201B5CFC43029F460E081E06C
:100730000CDD85E0E4CFC53071F761E081E005DDD7
:1007400084E0DDCF809357014093530150935401CF
:1007500060935501709356018091D8019091D90111
:10076000A091DA01B091DB0180934F019093500189
:10077000A0935101B093520161E081E016DD76CF84
:10078000DF92EF92FF920F931F93CF93DF93EC01D1
:1007900089899A89892B71F481E090E09B838A830F
:1007A00090E080E0DF91CF911F910F91FF90EF904B
:1007B000DF900895162FDFB6F8948B8981FD22C053
:1007C000CE0159DE89899A89C2DE8B8998E0E92EAB
:1007D000F12C01E081FF24C0812F8023D1F0CE01D4
:1007E0004ADE89899A89B3DE000F81E0E81AF108B0
:1007F00099F7CE0140DEDFBE89899A89A8DE81E0C3
:1008000090E0D0CFE985FA8580819885892B808317
:10081000D9CFE985FA8580819885892B8083E1CFBE
:10082000812F8023A9F0E985FA8580819885892B1D
:10083000808389899A898BDE000F81E0E81AF108AC
:1008400079F7E985FA8580819885892B8083D3CFD4
:10085000CE0111DEEECFCF93DF936DE08BEE91E012
:100860008FDFEC016AE08BEE91E08ADF8C0F9D1F39
:10087000DF91CF910895CF93DF93FC010190002089
:10088000E9F73197AF01481B590BBC018BEE91E0A2
:10089000CADDEC01E0DF8C0F9D1FDF91CF91089541
:1008A000CF92DF92EF92FF920F931F93CF93DF933C
:1008B00000D000D0CDB7DEB7182F882399F08091F3
:1008C000D701813079F48091C6019091C7010097DA
:1008D00091F519821A821B828FE38C83CE010196D7
:1008E00008DD7ADD8091D70181115CC0111174DDC2
:1008F00040E050E0BA0180E025DF61E080E025DCE7
:1009000081E0809360001092D4011092B90110929E
:10091000B8011092D6011092D501FADB0F900F901A
:100920000F900F90DF91CF911F910F91FF90EF905B
:10093000DF90CF9008959C0197FF04C022273327B2
:10094000281B390B492F441F4427441FFE013196B1
:100950006E0183E0C81AD1088AE0E82EF12C00E489
:10096000C901B701BBD6582F811109C02115310526
:1009700031F41382442369F0038340E00AC08E59A6
:100980009F4FDC018C918383511103C021153105E8
:1009900089F3C901B701A2D69B013197CE16DF06B4
:1009A000F9F69CCF112321F082E790E0A2DC14DD60
:1009B00087E08093E801BDDCA0CF1F920F920FB6B5
:1009C0000F9211242F933F938F939F93AF93BF93D5
:1009D0008091DD019091DE01A091DF01B091E001F5
:1009E0003091DC0123E0230F2D3768F126E8230F37
:1009F0000296A11DB11D2093DC018093DD0190932F
:100A0000DE01A093DF01B093E0018091E1019091BC
:100A1000E201A091E301B091E4010196A11DB11D95
:100A20008093E1019093E201A093E301B093E4018C
:100A3000BF91AF919F918F913F912F910F900FBEDA
:100A40000F901F9018950196A11DB11DD4CF1F9234
:100A50000F920FB60F9211242F933F934F935F93F2
:100A60006F937F938F939F93AF93BF93CF93EF93A6
:100A7000FF9386B395B389238093A1018091A00150
:100A80009091A101892780939F018091A10180937A
:100A9000A001C0E080919E01C81760F4EC2FF0E047
:100AA000EE0FFF1FE856FE4F0190F081E02D0995F3
:100AB000CF5FF0CFFF91EF91CF91BF91AF919F9119
:100AC0008F917F916F915F914F913F912F910F90F7
:100AD0000FBE0F901F901895CF93DF93CDB7DEB761
:100AE000A1970FB6F894DEBF0FBECDBF81E2E1E063
:100AF000F0E080935700849181BF789480B780683C
:100B000080BF80B7806480BF8CB580648CBD8FEF60
:100B10008DBD80B7807F876080BF89B7846089BFC3
:100B200083B7887F83BF8AB58C7F81608ABD83B796
:100B3000877F83BF83B7887F836083BF86B18760E9
:100B400086B9379A1092E50161E080E02EDB61E022
:100B500080E0FBDA61E081E028DB61E082E025DB18
:100B600060E083E022DB61E084E01FDB60E085E0A1
:100B70001CDB80E095DE3DE4232E312C4AE0442E40
:100B8000512C612C712CBB24B3945FE0A52E63E043
:100B9000962E72E0872E8FB7F894C090DD01D0902A
:100BA000DE01E090DF01F090E0018FBFC092D8013C
:100BB000D092D901E092DA01F092DB018091D70165
:100BC000811101C053DD8BEE91E08ADC1816190605
:100BD0000CF07BC08091D5019091D601892B09F052
:100BE00074C08BEE91E092DC8C019093B9018093FC
:100BF000B8018091B4019091B501A091B601B09176
:100C0000B701A7019601281B390B4A0B5B0BDA01D0
:100C1000C901883E9340A105B10508F01BDD809114
:100C2000B2019091B3010F9724F01092B30110928A
:100C3000B201C80180978F35910530F00A30110557
:100C400019F00D301105C9F58091B2019091B301F1
:100C5000FC01EE55FE4F008301969093B301809303
:100C6000B20166E070E082E990E0D6DC882341F0D2
:100C7000F1DC42E450E05093D6014093D5011DC011
:100C800068E070E089E990E0C7DC882341F0E2DCAD
:100C900083E590E09093D6018093D5010EC066E085
:100CA00070E082EA90E0B8DC882331F1D3DCE2E541
:100CB000F0E0F093D601E093D501C092B401D09258
:100CC000B501E092B601F092B7010091D501109103
:100CD000D6010115110509F47AC08BEE91E000DC14
:100CE000181619060CF05AC08BEE91E00FDC9093A9
:100CF000B9018093B801F1CF63E070E089EA90E038
:100D00008BDC882341F0A6DC2CE430E03093D60164
:100D10002093D501D2CF67E070E08DEA90E07CDCD3
:100D2000882321F097DC44E450E0A5CF66E070E032
:100D300085EB90E071DC882321F08CDC87E490E087
:100D4000A9CF66E070E08CEB90E066DC882331F0A0
:100D500081DC3092D6012092D501AFCF61E070E006
:100D600083EC90E059DC882311F074DCA6CF61E0BD
:100D700070E085EC90E050DC8111F7CF61E070E02D
:100D800087EC90E049DC8111F0CF61E070E089EC04
:100D900090E042DC882309F490CFE7CF02341105BC
:100DA00009F036C18BEC90E066DD8091D7018111AE
:100DB0002BC140E050E0BA0181E0C4DC8092D40154
:100DC0008BEE91E07EDB1092D6011092D501C0909F
:100DD000D801D090D901E090DA01F090DB01809148
:100DE000BE019091BF01A091C001B091C101A701C6
:100DF0009601281B390B4A0B5B0BDA01C9010597D9
:100E0000A105B10508F453C080E0A7DA823A934007
:100E10000CF0B5C181E090E09093BD018093BC01DE
:100E20008091BA019091BB01880F991F2091BC015C
:100E30003091BD01822B932B9093BB018093BA011B
:100E400096D49C0190916100923009F09DC12A30A6
:100E500031052CF18091CC019091CD01A091CE0172
:100E6000B091CF01B701A601481B590B6A0B7B0B50
:100E7000403D57406105710520F4892B8A2B8B2B4F
:100E800071F4C092D001D092D101E092D201F092DF
:100E9000D301B09261001092BB011092BA01C092CE
:100EA000BE01D092BF01E092C001F092C1018091D9
:100EB0006100813009F0A7C18091D0019091D101EA
:100EC000A091D201B091D301A7019601281B390B43
:100ED0004A0B5B0BDA01C90184399141A105B105C7
:100EE00028F085E08093D401909261008091D40134
:100EF000813009F0C4C180916000813009F04BCE8F
:100F00008091D7018111AAC14AEF50E060E070E002
:100F100084E018DC60E080E018D910926000109244
:100F2000FD011092FC011092FB011092FA01109247
:100F3000F9011092F80190E080E0FC01E25EFF4FC1
:100F400045915591659174914038554261057105FF
:100F500009F08BC1FC01EE5DFF4F25913491309378
:100F6000F7012093F601FC01EC5DFF4F25913491D0
:100F70003093F9012093F801FC01EA5DFF4F2591C0
:100F800034913093FB012093FA01FC01E85DFF4F9F
:100F9000859194919093FD018093FC018091FA01D9
:100FA0009091FB01892BA9F09091EF01963060F4AC
:100FB0008BB780628BBF85B321E030E001C0220F88
:100FC0009A95EAF7822B85BB8091FC019091FD01F7
:100FD000BEDA8091C4019091C5018B5E914009F405
:100FE000DACD8091FE018E7F8093FE018FB7F89459
:100FF0001092C3011092C2012BEE31E03093C50173
:101000002093C4018FBFC7CD8EE890E072D9D6CEB1
:101010000335110531F482ED90E02DDC9092D4017E
:10102000CFCE02351105B9F48FED90E024DC80912C
:10103000D701811109C04AEF50E060E070E084E020
:1010400081DBB092D401BCCEA092E80172D98AE8CB
:1010500090E04FD9F6CF0C341105E9F48AEE90E018
:101060000ADC1092D70197E09093E80162D9809151
:10107000D401813039F44AEF50E060E070E084E060
:1010800061DB9ECE40E050E0BA01823011F481E095
:10109000F7CF80E0F5CF04341105D9F48EEE90E05F
:1010A000EADBB092D70140E050E0BA0180E04ADBD1
:1010B000A092E8013ED98091D401813021F48AE8E0
:1010C00090E017D97DCE823009F07ACE8EE890E09C
:1010D000F8CF0734110521F58091D401811104C0A6
:1010E00086EF90E0C8DB6CCE813019F482E091E0AD
:1010F000F9CF823019F48EE091E0F4CF833019F407
:1011000089E191E0EFCF843019F486E291E0EACFF3
:10111000853019F488E391E0E5CF86E491E0E2CFF1
:101120000D34110509F04CCE19A28E010F5D1F4F31
:10113000C701B601A3019201F8D2822F6AE0C5D29D
:10114000EC2DE81B8E2FEA30C4F4805DF801829309
:101150008F0169017A01C114D104E104F10441F75E
:1011600001900020E9F73197AF01401B510BB80106
:101170008BEE91E058D96FDB23CE895CE7CF1092DC
:10118000BD011092BC014CCE913071F4232B09F0BB
:1011900086CEC092CC01D092CD01E092CE01F092E9
:1011A000CF011092610077CE911119C08091CC01CE
:1011B0009091CD01A091CE01B091CF01A7019601F0
:1011C000281B390B4A0B5B0BDA01C901803D9740A4
:1011D000A105B10508F463CE809261005CCE933026
:1011E00079F4232B09F05BCEC092CC01D092CD01D3
:1011F000E092CE01F092CF0184E0809361004BCE6B
:101200009430A1F24CCE811171CE8091CC0190919D
:10121000CD01A091CE01B091CF014091D00150916C
:10122000D1016091D2017091D301841B950BA60B63
:10123000B70B813D9740A105B10508F057CE8091CD
:10124000D401811105C0B092D401809261004ECECC
:1012500081508230D0F79092D401F7CFA092E8016C
:1012600068D88AE890E045D855CE0C96803991052B
:1012700009F063CE1092F7011092F6018FCE823002
:1012800009F489CC833069F58DE391E0F4DA8BEED3
:1012900091E017D98091D70181111FC04AEF50E02A
:1012A00060E070E084E04EDA33D78091D80190910D
:1012B000D901A091DA01B091DB01805D9A48AF4F6E
:1012C000BF4F8093C8019093C901A093CA01B09306
:1012D000CB0184E08093D4015ECC86E890E009D80D
:1012E000E3CF843049F583E038D89093C7018093E9
:1012F000C601BC01990F880B990BCCD020E030E0DF
:1013000040E85AE326D12DEC3CEC4CEC5DE3BCD03C
:1013100087FF03C081E0C4DA3ECC8091C801909180
:10132000C901A091CA01B091CB01C816D906EA063D
:10133000FB0608F430CCEECF853009F02CCC80E0F1
:10134000EACF82E08093E60181E08093E70184E6C2
:1013500090E09093EA018093E90160E082E025D774
:1013600060E08091E70121D760E08091E601EDD651
:1013700060E08091E701E9D61092EE011092ED0154
:101380008AE790E09093EC018093EB011092F701D3
:101390001092F6011092F9011092F8011092FB01DF
:1013A0001092FA011092FD011092FC018091FE0151
:1013B0008E7F8D7F8093FE0160E083E0F6D6809182
:1013C000FE0181FD03C061E083E0BFD683E080932E
:1013D000EF01EDEBF0E024912093F001E7EBF0E07A
:1013E000E491F0E0EE54FF4F849190E09093F2018D
:1013F0008093F101EEEBF0E0E491E093F301E2176A
:1014000031F061E084E0D1D661E084E09ED6E8EB83
:10141000F0E0E491F0E0E055FF4FE491F0E0F0936C
:10142000F501E093F40180919801909199018E5A11
:10143000924011F180919A0190919B018E5A9240B5
:10144000D9F080919C0190919D018E5A9240A1F01B
:1014500080919E01833080F4E0919E01F0E0EE0FD8
:10146000FF1FE856FE4F8EEA92E0918380838091C1
:101470009E018F5F80939E0108958AE790E090938C
:10148000EC018093EB0144C640D008F481E008955C
:10149000E89409C097FB3EF490958095709561950E
:1014A0007F4F8F4F9F4F9923A9F0F92F96E9BB27C4
:1014B0009395F695879577956795B795F111F8CF40
:1014C000FAF4BB0F11F460FF1BC06F5F7F4F8F4FAB
:1014D0009F4F16C0882311F096E911C0772321F0A1
:1014E0009EE8872F762F05C0662371F096E8862F39
:1014F00070E060E02AF09A95660F771F881FDAF790
:10150000880F9695879597F90895990F0008550FBC
:10151000AA0BE0E8FEEF16161706E807F907C0F079
:1015200012161306E407F50798F0621B730B840B81
:10153000950B39F40A2661F0232B242B252B21F45B
:1015400008950A2609F4A140A6958FEF811D811DFB
:1015500008950AD080C071D028F076D018F0952375
:1015600009F062C067C0ABC087D0A8F39923D9F354
:101570005523C9F3950F50E0551FAA27EE27FF27E3
:10158000BB2700240894679520F4E20FF31FB41FD3
:101590000A1E220F331F441FAA1F6695A9F77795CD
:1015A00030F4F30FB41F0A1E121E08F46395330FB4
:1015B000441FAA1F221F769599F7879520F4B40F30
:1015C0000A1E121E631F440FAA1F221F331F869577
:1015D000A9F7862F712D602D11249F5750408AF056
:1015E000E1F088234AF0EE0FFF1FBB1F661F771F35
:1015F000881F91505040A9F79E3F510570F014C0CC
:101600005EC05F3FECF3983EDCF386957795679577
:10161000B795F795E7959F5FC1F7FE2B880F911D52
:101620009695879597F9089597F99F6780E870E0F8
:1016300060E008959FEF80EC089500240A94161648
:10164000170618060906089500240A9412161306B0
:10165000140605060895092E0394000C11F488233E
:1016600052F0BB0F40F4BF2B11F460FF04C06F5F5A
:101670007F4F8F4F9F4F089557FD9058440F551F30
:1016800059F05F3F71F04795880F97FB991F61F004
:101690009F3F79F087950895121613061406551F7B
:1016A000F2CF4695F1DF08C0161617061806991FE7
:1016B000F1CF86957105610508940895E894BB27DC
:1016C00066277727CB0197F90895002480FD060E41
:1016D000660F11F08695D1F7802D0895AA1BBB1BCC
:1016E00051E107C0AA1FBB1FA617B70710F0A61B22
:1016F000B70B881F991F5A95A9F780959095BC0143
:10170000CD01089597FB072E16F4009406D077FDBF
:1017100008D0E4DF07FC05D03EF4909581959F4FFB
:101720000895709561957F4F0895A1E21A2EAA1B26
:10173000BB1BFD010DC0AA1FBB1FEE1FFF1FA21781
:10174000B307E407F50720F0A21BB30BE40BF50B7E
:10175000661F771F881F991F1A9469F76095709507
:10176000809590959B01AC01BD01CF01089507D0F4
:101770008F93892F04D099270F90800D0895082EFC
:10178000817006940694811D0694811D0694811D26
:101790000694811D0694811D0694801D0895EE0F08
:1017A000FF1F0590F491E02D099410E0C1E6D0E010
:1017B00003C0FE01F4DF2196C236D107D1F7F894B9
:0217C000FFCF59
:1017C20001023F065B4F666D7D077F6F777C395E56
:1017D20079715C71710000000000C0031302700295
:1017E2008602470261026D741C787C5C5C785C54F2
:1017F2000000424F4F544F4B0053485554444F57EB
:101802004E005245424F4F54004C45440044495308
:10181200504C415900535441545553004D494C4C7E
:1018220049530020000A000D000900626F6F746FB7
:101832006B00736F667473687574646F776E007390
:101842006F66747265626F6F74006C6564006469C0
:1018520073706C617900706F7765726564206F6672
:101862006600706F776572696E67206F6E00706FC9
:101872007765726564206F6E00706F776572696E4E
:1018820067206F6666007761697420666F722073E5
:10189200687574646F776E0068617264207368752E
:0E18A20074646F776E00756E6B6E6F776E00FC
:00000001FF
